:020000040800F2
:100000007806002099010008BD0E0008BF0B00080B
:10001000B90E0008CD0800083114000800000000E7
:10002000000000000000000000000000E3120008D3
:10003000A109000800000000FF110008CD1300080E
:10004000B3010008B3010008B3010008B3010008C0
:10005000B3010008B3010008B3010008B3010008B0
:10006000B3010008B3010008B3010008B3010008A0
:10007000B3010008B3010008B3010008B301000890
:10008000B3010008B3010008B3010008B301000880
:10009000B3010008B3010008B3010008B301000870
:1000A000B3010008B3010008B3010008B301000860
:1000B000B3010008B3010008B3010008B301000850
:1000C000B3010008B3010008B3010008B301000840
:1000D000B3010008B3010008B3010008B301000830
:1000E000B3010008B3010008B301000800F002F8F2
:1000F00000F042F80AA090E8000C82448344AAF180
:100100000107DA4501D100F037F8AFF2090EBAE87D
:100110000F0013F0010F18BFFB1A43F0010318473B
:100120005428000074280000103A24BF78C878C111
:10013000FAD8520724BF30C830C144BF04680C60ED
:10014000704700000023002400250026103A28BF35
:1001500078C1FBD8520728BF30C148BF0B60704739
:10016000752900F09D80732900F0318200207047CE
:100170001FB51FBD10B510BD00F036FA1146FFF7D0
:10018000F7FF01F0AFF900F054FA03B4FFF7F2FF04
:1001900003BC00F057FA00000948804709480047AF
:1001A000FEE7FEE7FEE7FEE7FEE7FEE7FEE7FEE727
:1001B000FEE7FEE704480549054A064B7047000084
:1001C000D1130008ED000008780000207806002018
:1001D00078020020780200200FB41CB5074B06AA55
:1001E0007B4469460090059800F0C7F900206946F5
:1001F00000F0D6F91CBC5DF814FB0000BD03000044
:1002000070B5044685690068C10601D5302600E056
:100210002026C00707D070BDD4E9012130469047A1
:10022000206A401C20626D1EF6D570BD70B5044674
:1002300085690078C00707D170BDD4E9012120206D
:100240009047206A401C20626D1EF6D570BD70B5C7
:100250000C460546012A05D02878800600D5EA69B3
:10026000002302E0012305E05B1C934202D2E05C24
:100270000028F9D1A869E618C01AA861286A1844AC
:1002800028622846FFF7BCFF04E0D5E9012114F8F5
:10029000010B9047B442F8D32846FFF7C7FF70BD63
:1002A0002DE9F0410646002410687529314616A54F
:1002B00010D0AFF30080002802DA404213A507E017
:1002C00031688A0701D512A502E0490704D511A5B6
:1002D000012401E0AFF3008000210A2206F1240787
:1002E00009E0B0FBF2FCB0FBF2F302FB1C00303083
:1002F00078541846491C0028F3D123462A46304634
:10030000BDE8F04100F0DAB8000000002D00000068
:100310002B000000200000002DE9F05F8946044614
:100320004FF0000ADFF874B1FB44C0F820A020466B
:10033000E1688847002874D0252806D0D4E9012137
:100340009047206A401C2062F1E700265F46204665
:10035000E16888472028054607DB312D05D278194A
:1003600010F8200C08B10643F1E7B00701D526F0DC
:100370000406C4F81CA00027C4F818A02A2D09D030
:10038000284601F0A7F838B304EB8708303DC8F8D9
:10039000185019E059F8041B204604EB87029161BC
:1003A000E1688847012F054618D1E069002820DA66
:1003B00026F020061DE0D8F8180000EB800005EBC1
:1003C00040003038C8F818002046E16888470546E4
:1003D00001F080F80028EED1012F0AD02E2D08D18F
:1003E0002046E16888477F1C0546022F46F020061C
:1003F000C4DBA069002803DA404246F00106A06190
:10040000F00701D026F010066C2D0BD0682D09D016
:100410004C2D39D06A2D35D0742D35D07A2D33D06E
:1004200016E038E0E1682F4620468847B842054686
:1004300009D16C2F26D04FF48060E1680643204636
:100440008847054604E06C2F1AD04FF480700643AD
:100450000DB3A5F14100192802D8203546F40066F5
:100460004A462946204626604E46FFF779FE80B16F
:1004700001280BD0F61D26F0070000F1080956E709
:100480004020E4E78020D8E70020D6E706F1040901
:100490004DE7284652E7206ABDE8F09FF6240000A9
:1004A00070477047704710B500F096F8006810BDAF
:1004B00010B5044600F090F8046010BD2DE9F04737
:1004C0000D4699469246044600F1240801688806C4
:1004D00004D5E06921F01001216000E00120A8426C
:1004E00001DD471B00E00027A1697A1902EB090032
:1004F000081AA0612078C00602D42046FFF780FECB
:10050000002608E0D4E901211AF806009047206A85
:10051000401C761C20624E45F4DB2078C0060AD5CC
:100520002046FFF76DFE06E0D4E901213020904718
:10053000206A401C2062381EA7F10107F4DC07E0A6
:10054000D4E9012118F805009047206A401C206278
:10055000281EA5F10105F3DC2046FFF767FE207891
:10056000000602D50220BDE8F0870120FBE700006D
:1005700001694A1C02610878704700B58FB0CDE967
:1005800001310021059105497944CDE90310114657
:100590006846FFF7C1FE0FB000BD0000E5FFFFFF9A
:1005A0000A6802F8010B0A60704710B5436913B17D
:1005B000AFF3008001E0FFF74AFE012010BD127882
:1005C00000F124010A7000224A700122EDE711684F
:1005D0004FF0FF32E9E700000048704718000020A4
:1005E00000487047180000207546FFF7F9FFAE4637
:1005F00005006946534620F00700854618B020B52F
:10060000FFF7D8FDBDE820404FF000064FF000078F
:100610004FF000084FF0000B21F00701AC46ACE8AA
:10062000C009ACE8C009ACE8C009ACE8C0098D4617
:10063000704710B50446AFF300802046BDE8104077
:10064000FFF7A3BD01491820ABBEFEE7260002005C
:10065000704721B1826842F00102826003E0826843
:1006600022F0010282607047014600208A6802F091
:1006700004020AB1012000E0002070470146C86C66
:1006800080B270470246002013680B400BB1012076
:1006900000E000207047014600208A6802F008024E
:1006A0000AB1012000E000207047000030B502468A
:1006B0000020002350680F4C20400D790C6844EA5C
:1006C00005242043506090680B4C2040D1E902542F
:1006D0002C434D7944EA450420439060D06A20F4CD
:1006E00070000C7C641EE4B2234340EA0350D062E5
:1006F00030BD0000FFFEF0FFFDF7F1FFF0B504464E
:100700000D4600200021092D11DDE068A5F10A0643
:1007100006EB4607072606FA07F18843A5F10A0605
:1007200006EB460603FA06F10843E0600CE0206998
:1007300005EB4507072606FA07F1884305EB450652
:1007400003FA06F108432061072A0FDA606B561E90
:1007500006EB86071F2606FA07F18843561E06EBAE
:10076000860605FA06F10843606322E00D2A0FDAD7
:10077000206BD61F06EB86071F2606FA07F1884373
:10078000D61F06EB860605FA06F10843206310E043
:10079000E06AA2F10D0606EB86071F2606FA07F1AE
:1007A0008843A2F10D0606EB860605FA06F108431A
:1007B000E062F0BD816841F008018160704721B1BD
:1007C000826842F4A002826003E0826822F4A00200
:1007D00082607047816841F00401816070472DE9B3
:1007E000F04107460C460026002505E0384600F09B
:1007F0000BF80644681CC5B2A542F7DBB6FBF4F063
:1008000080B2BDE8F081000010B504460723012244
:1008100021460948FFF772FF01210748FFF7CFFF84
:1008200000BF02210448FFF72DFF0028F9D002483D
:10083000FFF724FF10BD00000024014000B587B081
:100840000121480200F00EFD0121042000F00AFD04
:100850004FF4004000F0FAFC00208DF81B0003204C
:10086000ADF818008DF81A0006A9164800F00EF928
:100870000020019004904FF46020039000208DF838
:1008800009008DF8080001208DF8140001A90E4818
:10089000FFF70CFF01210C48FFF7DBFE0A48FFF7CA
:1008A00089FF00BF0848FFF7F6FE0128FAD0064886
:1008B000FFF790FF00BF0448FFF7D6FE0128FAD0EB
:1008C00007B000BD000801400024014000BFFEE762
:1008D00070B500262648007800B170BD2548006834
:1008E00025490968441AB4F5966F01DD18262FE0F2
:1008F000B4F5FA7F01DD0A262AE0962C01DD0426F4
:1009000026E03C2C01DD022622E0282C01DD012618
:100910001EE014F5966F02DA6FF0170618E014F572
:10092000FA7F02DA6FF0090612E014F1960F02DA8C
:100930006FF003060CE014F13C0F02DA6FF00106D1
:1009400006E014F1280F02DA4FF0FF3600E000262F
:100950000A4800888519002D00DA0025B5F57A6F60
:1009600001DD4FF47A65A8B200F00AF800BFB4E7E1
:1009700012000020040000200800002010000020C9
:1009800010B50446B4F5805F01DB40F6FF74034800
:100990000480008800F07AFA10BD000010000020EA
:1009A000704700B5034603E04FF47A7000F005F895
:1009B000181EA3F10103F7D100BD00EBC001C9006F
:1009C0004FF0E0225161002191610521116100BFCA
:1009D0004FF0E021096901F480310029F8D00421A9
:1009E0004FF0E0221161704700B585B0154816A19F
:1009F0000268012000F09EFB144815A10268022045
:100A000000F098FB13480068642804D112A16846DE
:100A1000FFF7E2FB03E014A16846FFF7DDFB6A463F
:100A20000121032000F0B2FB1348028813A168469D
:100A3000FFF7D2FB6A460121042000F0A7FB05B0B6
:100A400000BD0000040000205345540008000020B1
:100A50004F55540014000020535445503A302E3165
:100A60005620202020202000535445503A312E306B
:100A70005620202020202000100000204441433A2E
:100A80002534752020202020202020002DE9F04151
:100A9000024600250026002000230024002791F8AC
:100AA00003C00CF00F0591F803C00CF0100CBCF162
:100AB000000F03D091F802C04CEA050591F800C080
:100AC000BCF1000F31D0146800202BE04FF0010C76
:100AD0000CFA00F3B1F800C00CEA03069E4220D1E4
:100AE00083004FF00F0C0CFA03F7BC4305FA03FC2C
:100AF0004CEA040491F803C0BCF1280F06D14FF072
:100B0000010C0CFA00FCC2F814C00AE091F803C012
:100B1000BCF1480F05D14FF0010C0CFA00FCC2F8F3
:100B200010C0401C0828D1D31460B1F800C0BCF13B
:100B3000FF0F34DD546800202EE000F1080C4FF068
:100B4000010808FA0CF3B1F800C00CEA03069E4253
:100B500021D183004FF00F0C0CFA03F7BC4305FAC8
:100B600003FC4CEA040491F803C0BCF1280F05D142
:100B700000F1080C08FA0CF8C2F8148091F803C0D0
:100B8000BCF1480F07D100F1080C4FF0010808FA3A
:100B90000CF8C2F81080401C0828CED35460BDE881
:100BA000F0810246002093680B400BB1012000E069
:100BB000002070470AB1016100E04161704700BF49
:100BC000FEE7000010B500242348007868B3022136
:100BD0002248FFF7E6FF58B14FF480611F48FFF746
:100BE000E0FF28B14FF400611C48FFF7DAFFE0B9DD
:100BF0001420FFF7D6FE002017490870022117487D
:100C0000FFF7CFFF08B9012423E04FF40061134838
:100C1000FFF7C7FF08B902241BE04FF480610F48BB
:100C2000FFF7BFFFA8B9032413E002210B48FFF729
:100C3000B8FF01280DD181020848FFF7B2FF012853
:100C400007D1C1020548FFF7ACFF012801D10249D5
:100C50000870204610BD000000000020000C01407C
:100C600008B50121082000F0FDFA48208DF80300A6
:100C700040F60240ADF8000003208DF802006946FE
:100C80000148FFF703FF08BD000C014010B5FFF756
:100C900099FF0446012C1FD12648007830B100206E
:100CA000244908702449086000F0A4FA224800682A
:100CB00022490968084442F6E061884207D81E4884
:100CC00000681E49096808441B49086030E042F684
:100CD000E060194908602BE0022C1BD11548007810
:100CE00030B10020134908701349086000F082FAFF
:100CF0001148006811490968884207D30E48006806
:100D00000E490968401A0C49086011E000200A49A0
:100D100008600DE0032C0BD108480068642804D15A
:100D20004FF47A700549086002E0642003490860C6
:100D300010BD00001200002004000020140000205C
:100D400008B50020009004E09DF80000401CC0B2EF
:100D500000909DF800001428F6DB08BD70B504462D
:100D6000002521E004F0800028B1012280211A48EA
:100D7000FFF720FF04E0002280211748FFF71AFF49
:100D8000FFF7DEFF012240211348FFF713FFFFF7B3
:100D9000D7FF002240211048FFF70CFFFFF7D0FFDC
:100DA0006006040E681CC5B2082DDBDB0122802121
:100DB0000948FFF7FFFEFFF7C3FF01224021064865
:100DC000FFF7F8FEFFF7BCFF002240210248FFF7C3
:100DD000F1FEFFF7B5FF70BD000C014010B5012218
:100DE00080210C48FFF7E6FE012240210948FFF769
:100DF000E1FEFFF7A5FF002280210648FFF7DAFE9B
:100E0000FFF79EFF002240210248FFF7D3FEFFF7C5
:100E100097FF10BD000C014010B5002280210A4848
:100E2000FFF7C8FEFFF78CFF012240210648FFF7BD
:100E3000C1FEFFF785FF012280210348FFF7BAFEBC
:100E4000FFF77EFF10BD0000000C014008B5012136
:100E5000082000F007FA14208DF80300C020ADF838
:100E6000000003208DF8020069460748FFF70EFED8
:100E7000012240210448FFF79DFE01228021024803
:100E8000FFF798FE08BD0000000C014010B50446B5
:100E9000C4F30B04FFF7A2FFC020FFF75FFF402061
:100EA000FFF75CFF2009FFF759FF2107080EFFF746
:100EB00055FFFFF7B1FF10BD00BFFEE7704770B5EB
:100EC00000240EE00021204600F0E9F8002504E0AF
:100ED000002000F07FF9681CC5B2802DF8DB601C93
:100EE000C4B2082CEEDB70BD08B50121082000F06B
:100EF000B9F914208DF8030003208DF802004FF497
:100F00008070ADF8000069460A48FFF7BFFD4FF456
:100F10000070ADF8000069460648FFF7B7FD0122F2
:100F200011020448FFF746FE012251020148FFF773
:100F300041FE08BD000C014070B50546002419E0D3
:100F400080202041284008B1012000E00020024616
:100F50004FF400710E48FFF72DFE012211020C48DC
:100F6000FFF728FE00224FF480710948FFF722FEA8
:100F7000601CC4B2082CE3DB012211020448FFF715
:100F800019FE00224FF480710148FFF713FE70BD77
:100F9000000C014010B5012251020A48FFF70AFE79
:100FA000012211020748FFF705FE00224FF40071ED
:100FB0000448FFF7FFFD00224FF480710148FFF75E
:100FC000F9FD10BD000C014010B500224FF4007176
:100FD0000648FFF7EFFD012211020448FFF7EAFD82
:100FE000012251020148FFF7E5FD10BD000C014050
:100FF00070B5002406E0002500E06D1CB5F57A7F91
:10100000FBD3641CB4F57A7FF5D3FFF76DFFAE20F8
:1010100000F0D0F8D52000F0CDF8802000F0CAF81C
:10102000A82000F0C7F83F2000F0C4F8D32000F05B
:10103000C1F8002000F0BEF8402000F0BBF8A1206D
:1010400000F0B8F8C82000F0B5F8DA2000F0B2F8E7
:10105000122000F0AFF8812000F0ACF8CF2000F0B3
:10106000A9F8D92000F0A6F8F12000F0A3F8DB20C1
:1010700000F0A0F8302000F09DF8A42000F09AF8CD
:10108000A62000F097F88D2000F094F8142000F0CE
:1010900091F8AF2000F08EF8FFF711FF70BD70B52A
:1010A00005460C4645F0B00000F084F8102141EAF6
:1010B000141000F07FF804F00F0000F07BF870BD12
:1010C0002DE9F04105460E461746721ED206110E56
:1010D0006A1E5206100EFFF7E2FF002409E0A7F196
:1010E0002001134A02EB0111085D00F073F8601C47
:1010F000C4B2082CF3DB721ED206110E6A1E012345
:1011000003EB4202D0B2FFF7CAFF00240BE0A7F1C5
:101110002001074A02EB011204F10801505C00F0C3
:1011200059F8601CC4B2082CF1DBBDE8F081000066
:10113000322200082DE9F04186B006460D461446DD
:101140004FF47A70B4FBF0F7B4FBF0F100FB114000
:101150000A21B0FBF1F83B462A4607A101A8CDF8C9
:101160000080FFF739F801AA0121304600F00EF89F
:1011700006B0BDE8F081000025733A25326C752E6B
:101180002530326C75562020200000002DE9F041FA
:1011900007460E461546002407E02A5D3019C1B205
:1011A0003846FFF78DFF601CC4B2285D0028F4D1DB
:1011B000BDE8F08110B50446FFF7ECFE7820FFF79C
:1011C000BBFE0020FFF7B8FE2046FFF7B5FEFFF795
:1011D000FBFE10BD10B50446FFF7DCFE7820FFF7DC
:1011E000ABFE4020FFF7A8FE2046FFF7A5FEFFF765
:1011F000EBFE10BD10B50020FFF7C2FB10BD70471D
:1012000010B50E48006840F2E241884207D901203B
:101210000B49087000200B490860FFF7EBFF0A48F4
:10122000006843F20C01884207D901200449087084
:10123000002004490860FFF7DDFF10BD0C0000200E
:1012400012000020040000200800002001460020B9
:10125000034A506820F44040084350607047000043
:101260000010024029B1064A92690243044B9A6178
:1012700004E0034A92698243014B9A61704700007F
:101280000010024070B510210120FFF7A8FA0646B1
:1012900040F6E440704340F6FF71B0FBF1F54FF4C7
:1012A0007A70684340F20E61B0FBF1F40A2C00D270
:1012B0000024204670BD2DE9F04120210020FFF7D9
:1012C0008EFA074640F6E440784340F6FF71B0FBE3
:1012D000F1F4A500284600F0ADF806463046BDE81A
:1012E000F081704710B500F001F810BD0CB500207A
:1012F000019000903348006840F480303149086024
:1013000000BF3048006800F4003000900198401C95
:101310000190009818B90198B0F5A06FF1D1294853
:10132000006800F4003010B10120009001E00020BE
:1013300000900098012843D12348006840F0100035
:10134000214908600846006820F00300086008464C
:10135000006840F0020008601A4840681949486077
:101360000846406848600846406840F4806048602D
:101370000846406820F47C1048600846406840F405
:10138000E81048600846006840F08070086000BFC0
:101390000C48006800F000700028F9D00948406847
:1013A00020F00300074948600846406840F002000A
:1013B000486000BF0348406800F00C000828F9D1DD
:1013C0000CBD0000001002400020024070470000E9
:1013D00010B51348006840F0010011490860084644
:1013E0004068104908400E494860084600680E49A8
:1013F00008400B4908600846006820F48020086017
:101400000846406820F4FE0048604FF41F008860E2
:10141000FFF768FF4FF000600449086010BD00004E
:10142000001002400000FFF8FFFFF6FE08ED00E0AC
:1014300000BFFEE72DE9F047044614B90020BDE8DF
:10144000F087204600F026FD07460C4900F0FEFB21
:1014500005460B49284600F081F88046074940467A
:1014600000F02CFD81464FF07C5100F087FB0746D1
:1014700000F0D8FC06463046E1E7000000007A4460
:10148000CD8F7E3F4100080218BF04200A0E18BF0E
:1014900040F001004FF07F4232EA010108BF40F006
:1014A0000200012808BF0520704700214FF07E5040
:1014B00000F0CCBB00F062BB0021084600F0C6BBC8
:1014C00061214FF0E04000F076BE6FF05E0108074A
:1014D00000F071BE30380A2801D201207047002088
:1014E00070470000FFF784FDFFF7E9FCFFF7A6F95E
:1014F000FFF7B6FBFFF7AAFC00201249086012496B
:101500000860124908601249088012490870642076
:10151000114908600020FFF733FA12E0FFF7B6FB2D
:10152000FFF7C9FE08490860FFF7ACFE07490860ED
:10153000FFF766FEFFF7CCF9FFF756FA1420FFF726
:1015400030FAEBE704000020080000200C00002027
:101550001000002012000020140000202DE9F04DA2
:101560000E460023A0F5000C4FF00071354684B004
:1015700002464FF07E5401EB45014FF07F48BCF12D
:10158000FE4F80F09F81B1F1804FC0F0DB81FE49BA
:101590000144B1F5005F40F2A78200F58021C90C3B
:1015A00001F00F07C1F307117F39A2EBC15501EB21
:1015B000030B384600F056FC6FF0030100F0FBFD12
:1015C0004FF07E5100F0DAFA01460290284600F012
:1015D0004BFD01902846029900F0D0FA00F5006A10
:1015E0006FF30B0A00905146029800F03DFD29462A
:1015F00000F0C4FA02904FF07E50009900F026FBF4
:1016000001460090019800F059FC00F500656FF369
:101610000B052846029900F051FC029051462846DD
:1016200000F04CFC019900F015FD029900F01CFD42
:10163000009900F043FC01460190284600F09EFA14
:101640000146029000F03AFC8246D04900F036FC98
:10165000CF4900F093FA514600F030FC8246002159
:10166000284600F0A8FD00905146029800F026FCA4
:1016700005460021019800F09EFD294600F07EFA03
:1016800082460146009800F079FA00F500656FF394
:101690000B052946009800F0E7FC514600F06EFA71
:1016A0008246BC49284600F009FC0090BA495046E1
:1016B00000F004FC8246B949284600F0FFFB514681
:1016C00000F05CFA82460146009800F057FA00F5F7
:1016D00000656FF30B052946009800F0C5FC5146E4
:1016E00000F04CFA8246AE48784450F8371000EBD0
:1016F000C700019147684FEA0B1000F0B3FB009060
:101700003946504600F03AFA294600F037FA019976
:1017100000F034FA009900F031FA00F5006B6FF335
:101720000B0B5846009900F09FFC019900F09CFCBF
:10173000294600F099FC394600F096FC514600F02D
:1017400089FC06F5006782466FF30B073946304681
:1017500000F08AFC0021009008464FF0000000F0E5
:101760000C063946584600F0A9FB054620F000401B
:10177000B0F18B4F0ADDB8EB400F07D34FF08B4031
:1017800060F31E052F464FF0000A1FE0384600990F
:1017900000F0F4F9514600F091FB074658460099D5
:1017A00000F08CFB394600F0E9F9824601462846F4
:1017B00000F0E4F900F500676FF30B07394628469F
:1017C00000F052FC514600F0D9F9824631460C2017
:1017D0004FF000005146384600F0D0F900F0F8FA1A
:1017E0000646051100F03EFB394600F033FC514639
:1017F00000F0C4F907466B4900F060FB6A4900F04D
:10180000BDF9394600F05AFB684900F0B7F939468E
:1018100000F054FB0146664806F00F06784450F885
:10182000260000F04BFB6349794451F8261000F084
:10183000A5F96149794451F8261000F09FF905F1A6
:101840007D01FC2908D2294600F0B5FC04B02146F0
:10185000BDE8F04D00F032BB05F1BF01B1F5BF7F2F
:1018600016D8294600F0A7FC214600F027FB0546C4
:10187000B8EB450F1AD068000CD02846FFF702FEDF
:10188000042808BFFFF721FE284604B0BDE8F08D0C
:10189000002D0BDA0220FEF70BFEFFF716FE0146C5
:1018A000204604B061F31E00BDE8F08D0220FEF773
:1018B000FFFDFFF705FE0146204604B061F31E0060
:1018C000BDE8F08DB1F1804F3CD300BF00F1FF4186
:1018D000B1F1FE4F21D200BF20F00042C5F3C75145
:1018E00010467F290DDB9729BFF651AEC1F1960155
:1018F0004FF0010C0CFA01F1A1F1010C1CEA050FEB
:1019000007D00120FEF7D4FD04B0BDE8F04DFFF78D
:10191000D3BD294218BF294C39E641001CBF4FF006
:101920008071B1EB400F09D91B2100F044FC024645
:101930006FF01A0310F0004FCED128E6BCF1FE4F35
:1019400018D224E6B1F1007F0ED336F0004105D065
:1019500006F0004141F0FC552E46B7E7410018BFA4
:10196000B8EB400F78D8B1E7B1F1807F38BFA5F56B
:101970000006ABD320F000416FF0FF4C104C01EBA0
:101980000C03A3422FD31DE0001080C07EE24C3E2A
:10199000ABAAAA3E00B038423BAA3842D49AB8BBA0
:1019A00048110000FC596337C9FF753A1872313D80
:1019B00014110000C81000007C100000000080BF5F
:1019C000FFFF3F0025F000439C44A4450BD3B0F13A
:1019D0007E5F18BF5FEA450C3ED0B1F1FF4F98BF64
:1019E000B3F1FF4F05D904B03146BDE8F04DFFF724
:1019F00061BDB0F1FF4F0FD0C5F3C7517F2909DB9F
:101A0000972911DAC1F19601012202FA01F14A1E69
:101A10002A4205D0002108E015F0004F55D128E0FA
:101A2000294218BF012100D1022110F5000F14D066
:101A300020B3B0F1004F27D010F1814F4ED04FF0BE
:101A4000FE41B1EB400F94BF01200020012101EBCA
:101A5000E571884239D10CE040E015F0004F02D02A
:101A6000012936D031E0012902BF3F4804B0BDE86A
:101A7000F08D4FF0FF4004B0BDE8F08D15F0004050
:101A80000ED104B0BDE8F08DB5F1FF4F1DD015F5B6
:101A9000000F05D015F0004F14D009B1012907D06F
:101AA0000220FEF705FD04B0BDE8F04DFFF7FDBCD8
:101AB0000220FEF7FDFCFFF7F8FC04B080F00040C8
:101AC000BDE8F08D09B1012903D004B00020BDE8C4
:101AD000F08D04B04FF00040BDE8F08D04B04FF041
:101AE0007E50BDE8F08D00BF4FF07E5100F0BCFA93
:101AF00005466FF0010100F05EFB1C4900F0AAFAF8
:101B0000294600F0DBF94FF07C5100F0A3FA0746BC
:101B10002946084600F0D2F980F00040394600F02E
:101B2000CDF982461249284600F0C8F90746114906
:101B3000504600F0C3F982460F49284600F0BEF92E
:101B4000514600F01BF805460146384600F016F8ED
:101B500000F5006B6FF30B0B5946384600F084FA22
:101B6000294600F00BF8ECE5000080FFABAAAA3E86
:101B700000B0B8413BAAB841D49A38BB90EA010FF3
:101B800048BF81F0004100F17682421A3CBF801AC2
:101B900089184FEAD0524FF07F4C1CEA410FA2EB5C
:101BA000D15318BF9CEA026F00F03B804FF0004C0D
:101BB0004CEA00204CEA012121FA03FC10EB0C0C4A
:101BC0001ED202F1FF325FEA1C2040EBC25038BF48
:101BD00070471CF07F0F4FEA400C18BFBCF17F4FDD
:101BE00038BF7047C3F12003994008BF20F00100BF
:101BF000BCF17F4F38BF7047A0F1C04000F025BA5C
:101C00004FEA3C00000A40EBC25028BF1CF0FF0F17
:101C10004FEA400CE6D018BFBCF17F4F38BF704789
:101C2000EAE79CEA026F05D010EA5C0F08BF00F0FB
:101C30000040704710B500F0C2F900BF64FBBE3E23
:101C4000014800F086BA00BF0000C07F4FF47F0C4F
:101C50001CEAD0121EBF1CEAD11392EA0C0F93EAC1
:101C60000C0F00F0858090EA010F48BF42F48072AB
:101C700040F4000C41F400002CF07F4120F07F4044
:101C800000B58142A2EB03020FF2081CACEB504EF0
:101C9000C0F100009EF800E04FEA4E0E00FB0EFC83
:101CA00038BF49004FEA2C1C02F5FA020CFB0EF378
:101CB0004FEACE1E4FEA112C4FEAC1210EEB635EB4
:101CC00042EB22420EFB0CFC4FEA1C5300FB0311BB
:101CD0004FEA112C4FEA01310EFB0CFC4FEADC4CB1
:101CE00000FB0C11C14228BF09184CEB03335DF80F
:101CF00004EB10EB410143EBC250B2F57C0F38BF4F
:101D0000704729D512F0F00F1CBF00F1C04000F061
:101D100000407047008182838485868788898B8C08
:101D20008D8E8F919293959697999A9C9D9FA0A244
:101D3000A3A5A7A8AAACAEB0B2B3B5B7B9BCBEC094
:101D4000C2C5C7C9CCCED1D4D7D9DCDFE2E6E9EC35
:101D5000F0F3F7FAFE0000004FEA400C0CF1807C33
:101D6000BCF17E4F28BF7047B0F1C04000F06DB9A4
:101D700090EA010F0CEAD11348BF42F48072624529
:101D800038BF634507D213F47F0F16D080EA0100F5
:101D900000F00040704710B500F011F9097EFC3EDC
:101DA00000F005B880EA010000F00040704780EACA
:101DB000010000F0004000F048B912F47F0F04BFAA
:101DC0000248704780EA010000F03FB90000C07F80
:101DD00041000B0ED3F19E0216D950F400034FEAD6
:101DE000032333FA02FC0AD363FA02F383EA0C03F7
:101DF00093F0004F0CF1010C08BF2CF0010C5CEAD1
:101E0000100028BF4042704710B500F0D8F800BF5E
:101E100049922480002070476FF0004282EA20003F
:101E200070470000C10DD1F19E0206DB4FEA00238E
:101E300043F0004323FA02F07047004207D54FEA0F
:101E40004001B1F1FE4F02D24FF00000704710B5D3
:101E500000F0B5F849922480002070476FEA200016
:101E60007047000010F0004148BF4042B0FA80F3D4
:101E700010FA03F2C3F19D030BD051EAC35101EBF9
:101E80001220530638BF704700F1010008BF20F050
:101E900001007047B0FA80F310FA03F2C3F19D031A
:101EA0000AD0D90501EB1220530638BF704700F164
:101EB000010008BF20F00100704700004FF47F0CC4
:101EC0001CEAD0121EBF1CEAD11392EA0C0F93EA4F
:101ED0000C0F00F0478090EA010F48BF42F4807277
:101EE0004FF0004C4CEA00204CEA012102EB0302C7
:101EF000A0FB0113A2F50002002918BF43F0010363
:101F00005B0028BF4FEA330342EB22425FEA132C07
:101F10004CEBC2502EBFBCEB436FB2F57C0F704749
:101F20004FEA036CBCF1004F08BF20F00100B2F58E
:101F30007C0F38BF70470BD582F0FF0212F5803F4F
:101F4000C8BF704700F1C040D8BF00F000407047E4
:101F500000F5000C5FEA4C0C48BF7047B0F1C04080
:101F600000F073B890EA010F0CEAD11348BF42F4B5
:101F70008072624538BF634504D280EA010000F0F8
:101F80000040704710B500F01AF800BF8900013E0C
:101F900000F007B800F009B85FEA410C5FEA1C6C7A
:101FA00008D080EA010000F050B85FEA400C5FEA18
:101FB0001C6CF6D14FF00040A0F5800070470EF188
:101FC000020E2EF0030E5EF8044B244204D44FEAB6
:101FD0004102B2F17F4F11D84FEA4003B3F17F4F76
:101FE0000CD80ED14FEAD07CB2F17F4F0CEB4C0CE9
:101FF0000CF1020C08BF4CEBD17C04E04FF0080C54
:1020000001E04FEAD17C0CEB4C0324FA03F404F01A
:102010000704B4F1040C06D20EEB840CBDE81040AA
:102020004CF0010C6047DFE80CF0070802024FF0AB
:102030000040A0F5800010BD0846420018BFD2F154
:10204000807288BF00F0004010BDFF2141EAD050EF
:10205000C005704780F0004090EA010F7FF595AD14
:1020600081F0004100F007B890EA010F48BF81F00D
:1020700000413FF58AAD421A04D882F00042A0EB3D
:10208000020011444FEAD0524FF07F4C1CEA410F3E
:10209000A2EBD15318BF9CEA026F4AD04FF0004C1C
:1020A0004CEA00204CEA012121FA03FCB0EB0C0CB5
:1020B0000FD412F0FE0F36D05FEA4C001DD500128F
:1020C00040EBC25038BF70471CF03F0F18BF70473D
:1020D0000BE0A2F101025FEA1C2040EBC25038BFC6
:1020E00070471CF07F0F18BF7047C3F12003994061
:1020F00014BF401E20F00100704780084FEA1223F1
:1021000008BF7047B0FA80FCA2EB0C02CCF1280C9F
:1021100060FA0CF093EA122F04BF00EBC250704734
:102120004FEAC3707047130A5FEADC1008BF7047BC
:10213000F6E79CEA026F04D010EA5C0F08BF0020AB
:10214000704710B5FFF73BFF40DFF63E81F00040DF
:1021500070470CF00F03092B08BF082000F05180D6
:102160000A2B0BD0082B18BF704708BF1CF0400F7C
:102170000AD04FF000004FF0000170471CF0400FF4
:1021800018BF4FF0004070471CF0100F08D020F02F
:10219000704300F07F4242EAD3014FEA4370704738
:1021A00000F0604021F07F4242EA000201F07F40EF
:1021B00040EA727070474FF0FF0212EAD0521CBF23
:1021C00092F0FF038B42C2BFD14200EBC150704777
:1021D000002A0AD0002B0BD0002900F00040A4BF39
:1021E00040F0FE4040F40000704700F000407047AF
:1021F00043024FF00B0C18BF4CF0806C7FF420AD05
:1022000070471CF4801F11D01CF4E02F03D06FEA3C
:10221000CC31490070474FF04050EFF3008222F07C
:10222000704242EA000282F3008870474FF00000DB
:1022300070470000000000000000000000000000E7
:102240000000000000F80000000000000033300033
:10225000000000100C06100C06000000000000003A
:10226000000040C07840C0784000043F04043F04B0
:102270000400007088FC08300000001820FF211EB8
:102280000000F008F000E018000000211C031E21EF
:102290001E0000F00888700000001E21232419276A
:1022A000211010160E0000000000000000000000C9
:1022B0000000000000E018040200000000071820E1
:1022C000400000020418E000000000402018070051
:1022D0000000404080F0804040000202010F0102F7
:1022E0000200000000F0000000000101011F0101D8
:1022F0000100000000000000000080B0700000003D
:1023000000000000000000000000000101010101C8
:10231000010100000000000000000030300000005B
:102320000000000000008060180400601806010032
:10233000000000E010080810E000000F102020103E
:102340000F00001010F8000000000020203F2020A7
:10235000000000700808088870000030282422213E
:1023600030000030088888483000001820202011F4
:102370000E000000C02010F8000000070424243FD5
:10238000240000F80888880808000019212020117E
:102390000E0000E0108888180000000F11202011A6
:1023A0000E0000380808C83808000000003F000090
:1023B00000000070880808887000001C222121227B
:1023C0001C0000E010080810E0000000312222117B
:1023D0000F00000000C0C00000000000003030000E
:1023E000000000000080000000000000806000008D
:1023F00000000000804020100800000102040810C6
:1024000020004040404040404000040404040404D4
:102410000400000810204080000000201008040282
:102420000100007048080808F00000000030360184
:102430000000C030C828E810E00007182724231443
:102440000B000000C038E0000000203C23020227FF
:10245000382008F8888888700000203F202020114C
:102460000E00C03008080808380007182020201087
:10247000080008F808080810E000203F202020107D
:102480000F0008F88888E8081000203F202023204B
:10249000180008F88888E8081000203F2000030092
:1024A0000000C03008080838000007182020221E4D
:1024B000020008F808000008F808203F2101012167
:1024C0003F20000808F8080800000020203F2020D6
:1024D000000000000808F8080800C08080807F0025
:1024E000000008F888C028180800203F200126387E
:1024F000200008F8080000000000203F20202020D5
:10250000300008F8F800F8F80800203F003F003FCE
:10251000200008F830C00008F808203F2000071805
:102520003F00E01008080810E0000F1020202010E5
:102530000F0008F808080808F000203F21010101F9
:102540000000E01008080810E0000F18242438509C
:102550004F0008F8888888887000203F2000030C0E
:102560003020007088080808380000382021212217
:102570001C00180808F8080818000000203F200078
:10258000000008F808000008F808001F202020209C
:102590001F000878880000C83808000007380E01BE
:1025A0000000F80800F80008F800033C0700073CAA
:1025B0000300081868808068180820302C03032C5A
:1025C00030200838C800C83808000000203F20002C
:1025D000000010080808C8380800203826212020EC
:1025E0001800000000FE020202000000007F4040D0
:1025F0004000000C30C00000000000000001063860
:10260000C00000020202FE000000004040407F00C7
:1026100000000000040202020400000000000000AC
:1026200000000000000000000000808080808080AA
:102630008080000202040000000000000000000092
:1026400000000000808080800000001924222222E7
:102650003F2008F8008080000000003F112020117A
:102660000E000000008080800000000E112020205D
:102670001100000000808088F800000E112020105A
:102680003F200000808080800000001F2222222244
:102690001300008080F0888888180020203F2020C8
:1026A00000000000808080808000006B94949493F0
:1026B000600008F8008080800000203F210000209A
:1026C0003F2000809898000000000020203F20203C
:1026D0000000000000809898000000C08080807F8B
:1026E000000008F8000080808000203F24022D3088
:1026F0002000000808F8000000000020203F2020F3
:1027000000008080808080808000203F20003F206B
:10271000003F8080008080800000203F210000205A
:102720003F200000808080800000001F20202020AB
:102730001F00808000808000000080FFA120201109
:102740000E000000008080808000000E112020A07C
:10275000FF80808080008080800020203F2120003A
:102760000100000080808080800000332424242425
:102770001900008080E0808000000000001F202001
:1027800000008080000000808000001F20202010BA
:102790003F20808080000080808000010E3008068D
:1027A000010080800080008080800F300C030C309E
:1027B0000F0000808000808080000020312E0E31CC
:1027C0002000808080000080808080818E701806CC
:1027D000010000808080808080000021302C222138
:1027E000300000000000807C020200000000003F7A
:1027F000404000000000FF00000000000000FF005B
:1028000000000002027C800000000040403F000009
:1028100000000006010102020404000000000000A4
:102820000000040000080000000000000002000199
:102830000000100000000000000000000000B33F96
:10284000B2BE7D3A00002E40DFCF513800007E40FE
:10285000BF51FABA00E0A44019DAC3BA00E0C84098
:10286000C2ED8AB90040EB40CD1F2CBA00100641E2
:102870002AFFFABA00C01541DFCFD13700D024417A
:102880009A97703A0050334189478E360040414153
:10289000E75B9D3800B04E41C00A98B900A05B418B
:1028A000558F943A00306841DA92C0BA00407441C2
:1028B00062B3C63A0000803F00A0853F00908B3F86
:1028C00000C0913F0030983F00F09E3F00F0A53FD0
:1028D0000050AD3F0000B53F0000BD3F0060C53F68
:1028E0000020CE3F0040D73F00C0E03F00C0EA3F9D
:1028F0000020F53F000000007D36AC397D3C3839C2
:10290000EBDCF438320A7E39124C26399B6AED39F9
:10291000A4EE83397F661E39F6398A392B42653930
:10292000A48211395B991F39C3EECD39DDE7C63773
:10293000A5A22F390000803FC3AA853FC2958B3FD7
:10294000D3C3913FF037983F32F59E3FD7FEA53F66
:102950003F58AD3FF304B53FA408BD3F2A67C53FCC
:102960008C24CE3FFD44D73FDFCCE03FC7C0EA3FD9
:102970007D25F53F94290008000000201800000084
:1029800028010008AC29000818000020600600009B
:1029900044010008010000000000000000000000E9
:0C29A000000000000000000064000000C7
:04000005080000ED02
:00000001FF
